:020000040800F2
:100000000028002005180008CD140008D3140008AB
:10001000D9140008DF140008E514000800000000EF
:10002000000000000000000000000000EB140008C9
:10003000F714000800000000031500080F15000861
:100040004D1800084D1800084D1800084D180008FC
:100050004D1800084D1800084D1800084D180008EC
:100060004D1800084D1800084D1800084D180008DC
:100070004D1800084D1800084D1800084D180008CC
:100080004D1800084D1800084D1800084D180008BC
:100090004D1800084D1800084D1800084D180008AC
:1000A0004D1800084D1800084D1800084D1800089C
:1000B0001D1500084D180008000000004D1800082C
:1000C0004D18000800000000000000004D18000856
:1000D000000000004D1800084D1800080000000046
:1000E0004D1800084D1800084D18000800000000C9
:1000F0000000000000000000000000000000000000
:0C01000000000000000000005FF808F1A3
:10010C0010B5054C237833B9044B13B10448AFF345
:10011C0000800123237010BD80000020000000002F
:10012C007C2E000808B5034B1BB103490348AFF301
:10013C00008008BD00000000840000207C2E000818
:10014C0080B584B000AFF860B9607A600F4AFB6884
:10015C0052F823200E49FB6841F823200D4AFB6816
:10016C0052F823200949FB6841F823207B689BB295
:10017C001946B86801F050FE03461946054AFB685B
:10018C0042F8231000BF1037BD4680BD0C00002084
:10019C00000000201800002080B483B000AF78600D
:1001AC00094A7B6852F82330012B06D1064A7B683A
:1001BC00002142F82310012300E0002318460C37DD
:1001CC00BD4680BC704700BF9C00002080B582B04B
:1001DC0000AF102238490020FFF7B2FF2022364929
:1001EC000120FFF7ADFF402233490220FFF7A8FFA3
:1001FC0000237B6058E0314A7B6852F82320304959
:10020C007B6851F823309A424BD12D4A7B6852F8C7
:10021C0023202C497B6851F823309A4241D12A4A39
:10022C007B6852F8232027497B6851F823309A4287
:10023C0018D0244A7B6852F8232023497B6841F864
:10024C002320204A7B6852F82330002B29D11F4AE7
:10025C007B68012142F823101D4A7B68C82142F8B3
:10026C0023101EE0174A7B6852F82330002B18D15C
:10027C00174A7B6852F823305A1E15497B6841F89F
:10028C002320134A7B6852F82330002B09D10F4AE4
:10029C007B68012142F823100D4A7B68C82142F883
:1002AC0023107B6801337B607B68022BA3DD00BFCE
:1002BC0000BF0837BD4680BD00080140000000208B
:1002CC000C00002018000020240000209C000020BE
:1002DC003000002080B500AFA04B1B68162B40F0FF
:1002EC0039819F4B1A689F4B1B681A449E4B1B68A5
:1002FC009A4208D09C4B05221A60994B02221A6034
:10030C00984B03221A60994B1B68013B032B00F29C
:10031C00848001A252F823F0350300084F03000833
:10032C00DF0300089703000801F002F98F4B02224B
:10033C001A608D4B1B688E4A13608E4B32221A60EA
:10034C0072E001F025F9162000F0A0FC00F056FD3B
:10035C00884B1B68013B874A1360864B1B68002B3C
:10036C005DDC844B32221A60814B1B68013B804A56
:10037C0013607F4B1B68002B51DC7A4B1B687C4A4B
:10038C0013607A4B04221A6049E001F061F91620DF
:10039C0000F07CFC00F032FD764B1B68013B754A8B
:1003AC001360744B1B68002B3BDC724B32221A60BF
:1003BC006F4B1B68013B6E4A13606D4B1B68002B27
:1003CC002FDC674B1B686A4A1360684B03221A6068
:1003DC0027E001F00DF9162000F058FC00F00EFD9E
:1003EC00644B1B68013B634A1360624B1B68002B18
:1003FC0019DC604B32221A605D4B1B68013B5C4A76
:10040C0013605B4B1B68002B0DDC574B1B68584A69
:10041C001360564B02221A6005E000BF04E000BFD7
:10042C0002E000BF00E000BF534B1B68013B062BF2
:10043C0000F2928001A252F823F000BF650400087C
:10044C0065050008650500086505000889040008B5
:10045C0019050008D104000801F082F8162000F0FC
:10046C0015FC00F0CBFC444B07221A603D4B1B687B
:10047C00424A1360424B32221A6088E001F0A0F825
:10048C00162000F003FC00F0B9FC3D4B1B68013B4F
:10049C003B4A13603A4B1B68002B73DC384B3222FF
:1004AC001A60364B1B68013B344A1360334B1B6894
:1004BC00002B67DC2B4B1B68304A13602E4B07223A
:1004CC001A605FE001F0DCF8162000F0DFFB00F0B2
:1004DC0095FC2B4B1B68013B294A1360284B1B686E
:1004EC00002B51DC264B32221A60244B1B68013B3B
:1004FC00224A1360214B1B68002B45DC184B1B68F0
:10050C001E4A13601C4B06221A603DE001F088F86D
:10051C00162000F0BBFB00F071FC194B1B68013B73
:10052C00174A1360164B1B68002B2FDC144B32221E
:10053C001A60124B1B68013B104A13600F4B1B686F
:10054C00002B23DC084B1B680C4A13600A4B05225A
:10055C001A601BE000BF1AE000BF18E04800002042
:10056C005800002054000020500000203C000020C7
:10057C005C0000206400002040000020600000208F
:10058C006800002000BF02E000BF00E000BF80BD9B
:10059C0080B500AF334B1B68192B3ED0192B58DCA0
:1005AC00172B02D0182B1CD053E0282001F0B0F8E8
:1005BC002C4B1B68184600F069FB00F01FFC012057
:1005CC00FFF7EAFD0346002B45D0274B1B68622B37
:1005DC0003DC254B1B68013300E00123224A136026
:1005EC0039E0292001F094F81E4B1B68184600F0E6
:1005FC004DFB00F003FC0120FFF7CEFD0346002B62
:10060C002BD0194B1B68622B03DC174B1B68013377
:10061C0000E00123144A13601FE02A2001F078F84F
:10062C00104B1B68184600F031FB00F0E7FB012073
:10063C00FFF7B2FD0346002B11D00B4B1B68622B4E
:10064C0003DC094B1B68013300E00123064A1360ED
:10065C0005E000BF04E000BF02E000BF00E000BF07
:10066C0000BF80BD48000020B800002080B500AF5E
:10067C005A4B1B68013B182B00F2A48001A252F8C4
:10068C0023F000BFF5060008D1070008D1070008C9
:10069C00D1070008D1070008D1070008D1070008CE
:1006AC00D1070008D1070008D1070008D1070008BE
:1006BC00D1070008D1070008D1070008D1070008AE
:1006CC00D1070008D1070008D1070008D10700089E
:1006DC00D1070008D1070008FD0600081F07000815
:1006EC00570700088F0700083C4B16221A6072E06F
:1006FC000020FFF751FD0346002B65D0374B172226
:10070C001A60374B1B68374A1360374B01221A604B
:10071C005AE00020FFF740FD0346002B0AD02F4B78
:10072C0018221A60314B1B682E4A13602E4B012283
:10073C001A604BE00220FFF72FFD0346002B45D03B
:10074C00284B1B68264A136040E00020FFF724FD6D
:10075C000346002B0AD0214B19221A60244B1B682C
:10076C00204A1360204B01221A6031E00220FFF76F
:10077C0013FD0346002B2BD01A4B1B681B4A13602E
:10078C0026E00020FFF708FD0346002B0FD0134B8B
:10079C0016221A60174B01221A60174B01221A609D
:1007AC00164B01221A60104B01221A6012E0022033
:1007BC00FFF7F2FC0346002B0CD00A4B1B680C4ACB
:1007CC00136007E000BF06E000BF04E000BF02E0DA
:1007DC0000BF00E000BF00BF80BD00BF480000208C
:1007EC0050000020B80000204C00002058000020D1
:1007FC00540000203C000020400000204400002059
:10080C0080B582B000AF78607B68092B00F29E81C6
:10081C0001A252F823F000BF4D0800089B08000805
:10082C00E90800083709000885090008D309000801
:10083C00210A00086F0A0008BD0A00080B0B00080B
:10084C0000224FF40051C44801F0FDFA00224FF48D
:10085C008041C14801F0F7FA00224FF40041BE4834
:10086C0001F0F1FA00220121BC4801F0ECFA00225F
:10087C000221BA4801F0E7FA00220421B74801F03E
:10088C00E2FA01220821B54801F0DDFA5FE101220C
:10089C004FF40051B04801F0D6FA00224FF48041D9
:1008AC00AD4801F0D0FA00224FF40041AA4801F003
:1008BC00CAFA01220121A94801F0C5FA012202213C
:1008CC00A64801F0C0FA01220421A44801F0BBFAA9
:1008DC0001220821A14801F0B6FA38E100224FF4B8
:1008EC0000519D4801F0AFFA00224FF480419A4824
:1008FC0001F0A9FA01224FF40041974801F0A3FA44
:10090C0000220121954801F09EFA00220221934811
:10091C0001F099FA01220421904801F094FA002286
:10092C0008218E4801F08FFA11E100224FF400519A
:10093C00894801F088FA00224FF48041864801F082
:10094C0082FA00224FF40041834801F07CFA002225
:10095C000121824801F077FA012202217F4801F03F
:10096C0072FA012204217D4801F06DFA002208215F
:10097C007A4801F068FAEAE001224FF40051764817
:10098C0001F061FA00224FF48041734801F05BFAE8
:10099C0000224FF40041704801F055FA0122012168
:1009AC006E4801F050FA012202216C4801F04BFA1A
:1009BC0000220421694801F046FA00220821674808
:1009CC0001F041FAC3E000224FF40051624801F0FB
:1009DC003AFA01224FF480415F4801F034FA0022C8
:1009EC004FF400415C4801F02EFA002201215B48D3
:1009FC0001F029FA01220221584801F024FA0022C0
:100A0C000421564801F01FFA00220821534801F036
:100A1C001AFA9CE000224FF400514F4801F013FAEF
:100A2C0001224FF480414C4801F00DFA00224FF4A2
:100A3C000041494801F007FA00220121474801F022
:100A4C0002FA00220221454801F0FDF9002204219E
:100A5C00424801F0F8F900220821404801F0F3F96E
:100A6C0075E000224FF400513B4801F0ECF90022F4
:100A7C004FF48041384801F0E6F900224FF4004170
:100A8C00354801F0E0F901220121344801F0DBF98D
:100A9C0001220221314801F0D6F9012204212F480C
:100AAC0001F0D1F9012208212C4801F0CCF94EE0DB
:100ABC0000224FF40051284801F0C5F900224FF4F0
:100ACC008041254801F0BFF900224FF40041224833
:100ADC0001F0B9F900220121204801F0B4F90022FB
:100AEC0002211E4801F0AFF9002204211B4801F03D
:100AFC00AAF900220821194801F0A5F927E00022E3
:100B0C004FF40051144801F09EF900224FF480413B
:100B1C00114801F098F900224FF400410E4801F001
:100B2C0092F9002201210D4801F08DF901220221D8
:100B3C000A4801F088F900220421084801F083F9E1
:100B4C0000220821054801F07EF900E000BF00BF3B
:100B5C000837BD4680BD00BF00080140000C0140B5
:100B6C0080B582B000AF78607B68032B00F2848084
:100B7C0001A252F823F000BF950B0008D10B00081E
:100B8C000D0C0008490C000800224FF480513D4820
:100B9C0001F059F901224FF400513A4801F053F990
:100BAC0001224FF48041374801F04DF901224FF4F6
:100BBC000041344801F047F9334B1B681846FFF7E6
:100BCC001FFE5AE001224FF480512E4801F03BF9F0
:100BDC0000224FF400512B4801F035F901224FF45B
:100BEC008041284801F02FF901224FF4004125489B
:100BFC0001F029F9244B5B681846FFF701FE3CE035
:100C0C0001224FF480511F4801F01DF901224FF4CD
:100C1C0000511C4801F017F900224FF4804119488B
:100C2C0001F011F901224FF40041164801F00BF9C3
:100C3C00154B9B681846FFF7E3FD1EE001224FF4AD
:100C4C008051104801F0FFF801224FF400510D487B
:100C5C0001F0F9F801224FF480410A4801F0F3F851
:100C6C0000224FF40041074801F0EDF8064BDB6819
:100C7C001846FFF7C5FD00E000BF00BF0837BD46B2
:100C8C0080BD00BF000C0140A800002080B483B0E0
:100C9C0000AF78607B68163B032B00F29E8001A2AC
:100CAC0052F823F0C10C0008270D0008670D00084E
:100CBC00A70D00084C4B1B684C4A82FB0312921088
:100CCC00DB17D31A4A4A1360474B1968474B83FB0F
:100CDC0001239A10CB17D21A13469B0013445B00C6
:100CEC00CA1A434B5A60434B1B68404A82FB03129F
:100CFC009210DB17D31A3E4A93603E4B19683B4B5C
:100D0C0083FB01239A10CB17D21A13469B00134472
:100D1C005B00CA1A364BDA6060E0374B1B68334A0B
:100D2C0082FB03129210DB17D31A314A1360324B39
:100D3C0019682E4B83FB01239A10CB17D21A13463A
:100D4C009B0013445B00CA1A294B5A60284B0022A3
:100D5C009A60274B0222DA6040E0274B1B68234A3B
:100D6C0082FB03129210DB17D31A214A1360224B19
:100D7C0019681E4B83FB01239A10CB17D21A13460A
:100D8C009B0013445B00CA1A194B5A60184B002283
:100D9C009A60174B0322DA6020E0174B1B68134A4A
:100DAC0082FB03129210DB17D31A114A1360124BF9
:100DBC0019680E4B83FB01239A10CB17D21A1346DA
:100DCC009B0013445B00CA1A094B5A60084B002263
:100DDC009A60074B0422DA6000E000BF00BF0C37BA
:100DEC00BD4680BC704700BF5C000020676666662D
:100DFC00A800002060000020B800002080B500AFE3
:100E0C00544B1B68013B202B00F2998001A252F835
:100E1C0023F000BFA50E00084B0F00084B0F000875
:100E2C004B0F00084B0F00084B0F00084B0F00082E
:100E3C004B0F00084B0F00084B0F00084B0F00081E
:100E4C004B0F00084B0F00084B0F00084B0F00080E
:100E5C004B0F00084B0F00084B0F00084B0F0008FE
:100E6C004B0F00084B0F00084B0F00084B0F0008EE
:100E7C004B0F00084B0F00084B0F00084B0F0008DE
:100E8C004B0F00084B0F0008B30E0008D90E0008DA
:100E9C00FF0E0008250F00082E4B1E221A602E4B49
:100EAC0019221A6054E00020FFF75AFE2A4B1B68E7
:100EBC00013B294A1360284B1B68002B41DC254B56
:100ECC001F221A60244B19221A603AE00120FFF706
:100EDC0047FE214B1B68013B1F4A13601E4B1B68CE
:100EEC00002B30DC1B4B20221A601B4B19221A6082
:100EFC0029E00220FFF734FE174B1B68013B164A12
:100F0C001360154B1B68002B1FDC124B21221A603F
:100F1C00114B19221A6018E00320FFF721FE0E4B2B
:100F2C001B68013B0C4A13600B4B1B68002B0EDC3F
:100F3C00084B1E221A60084B19221A6007E000BFEA
:100F4C0006E000BF04E000BF02E000BF00E000BF0D
:100F5C0000BF80BD440000207000002080B500AFB1
:100F6C000221024800F087FF00BF80BD000801404D
:100F7C0080B500AF00F066FC00F034F800F0BAF871
:100F8C0000F06CF8114801F0BBFB00F024F900F004
:100F9C0027FC4FF4FA7200210D4800F083F90A2265
:100FAC0001210C4800F07EF90A2202210A4800F0C7
:100FBC0079F90A220321094800F074F90A22042164
:100FCC00074800F06FF900F0B5F9FCE7BC00002011
:100FDC00690F0008D901000879060008E102000831
:100FEC009D05000880B590B000AF07F118032822CA
:100FFC000021184601F034FF3B1D00221A605A6094
:10100C009A60DA601A610223BB610123BB62102370
:10101C00FB6200237B6307F11803184600F044FFC2
:10102C000346002B01D000F0D1F80F237B60002386
:10103C00BB600023FB6000233B6100237B613B1DF5
:10104C000021184601F0B0F90346002B01D000F046
:10105C00BDF800BF4037BD4680BD000080B586B0EE
:10106C0000AF07F1080300221A605A609A60DA6038
:10107C003B4600221A605A601D4B4FF080421A60AA
:10108C001B4B41F63F725A60194B00229A60184B69
:10109C000922DA60164B00221A61154B00229A6164
:1010AC00134801F0DDFA0346002B01D000F08EF856
:1010BC004FF48053BB6007F1080319460C4801F04C
:1010CC005BFC0346002B01D000F080F800233B6052
:1010DC0000237B603B461946054801F033FE03466E
:1010EC00002B01D000F072F800BF1837BD4680BD50
:1010FC00BC00002080B586B000AF07F108030022C9
:10110C001A605A609A60DA60284B9B69274A43F050
:10111C0004039361254B9B6903F004037B607B689C
:10112C00224B9B69214A43F0080393611F4B9B6937
:10113C0003F008033B603B6800224FF68E711C489D
:10114C0000F081FE00224FF20F011A4800F07BFEE6
:10115C004FF68E73BB600123FB6000233B610223BF
:10116C007B6107F108031946114800F0DBFC702382
:10117C00BB600023FB6001233B6107F108031946A8
:10118C000B4800F0CFFC4FF20F03BB600123FB6058
:10119C0000233B6102237B6107F1080319460548D4
:1011AC0000F0C0FC00BF1837BD4680BD00100240E7
:1011BC0000080140000C014080B582B000AF78609F
:1011CC0000F01EF800BF0837BD4680BD80B400AFEC
:1011DC0072B600BFFEE780B582B000AF0023FB7192
:1011EC0006E0FB79184600F0E1F8FB790133FB715E
:1011FC00FB79272BF5D900BF00BF0837BD4680BD52
:10120C0080B483B000AF0023FB7140E0FB79244A2B
:10121C001B0113441B68002B36D0FB79204A1B01A1
:10122C00134404331B68002B22D1FB791C491A018F
:10123C000A440C3212780132D1B2194A1B01134400
:10124C000C330A461A70FB79154A1B0113440833F8
:10125C001B68002B18D0FA79FB79114912010A444A
:10126C00083212680E491B010B4404331A600BE060
:10127C00FB790B491A010A4404321268013A0849F5
:10128C001B010B4404331A60FB790133FB71FB79AE
:10129C00272BBBD900BF00BF0C37BD4680BC7047A5
:1012AC000401002080B487B000AFF860B9607A60A8
:1012BC000023FB7502E0FB7D0133FB75FB7D1B4AB4
:1012CC001B0113441B68002B02D0FB7D272BF2D98A
:1012DC00FB7D282B01D1282323E0FB7D134A1B0126
:1012EC001344FA681A60FB7DBA681149A1FB02121B
:1012FC00D2080E491B010B4404331A60FB7D7A683B
:10130C000B49A1FB0212D20808491B010B440833FC
:10131C001A60FB7D054A1B0113440C3300221A7022
:10132C00FB7D18461C37BD4680BC7047040100206D
:10133C00CDCCCCCC80B582B000AF0023FB712AE0C1
:10134C00FB79194A1B0113440C331B78002B1FD05B
:10135C00FB79154A1B0113441B689847FB7912490A
:10136C001A010A440C321278013AD1B20E4A1B010E
:10137C0013440C330A461A70FB790B4A1B011344B5
:10138C0008331B68002B03D1FB79184600F00EF8CC
:10139C00FB790133FB71FB79272BD1D900BF00BF3F
:1013AC000837BD4680BD00BF0401002080B483B067
:1013BC0000AF7860164A7B681B0113441B68002B36
:1013CC0002D07B68272B01D900231BE0104A7B68D5
:1013DC001B01134400221A600D4A7B681B01134445
:1013EC00043300221A600A4A7B681B011344083339
:1013FC0000221A60064A7B681B0113440C3300223E
:10140C001A70012318460C37BD4680BC704700BFCC
:10141C000401002080B485B000AF154B9B69144AC1
:10142C0043F001039361124B9B6903F00103BB6012
:10143C00BB680F4BDB690E4A43F08053D3610C4BF6
:10144C00DB6903F080537B607B680A4B5B68FB6055
:10145C00FB6823F0E063FB60FB6843F08063FB6098
:10146C00044AFB68536000BF1437BD4680BC70470C
:10147C00001002400000014080B584B000AF7860DD
:10148C007B681B68B3F1804F13D10C4BDB690B4AA3
:10149C0043F00103D361094BDB6903F00103FB60EB
:1014AC00FB68002200211C2000F005FB1C2000F032
:1014BC001EFB00BF1037BD4680BD00BF00100240B0
:1014CC0080B400AFFEE780B400AFFEE780B400AF9D
:1014DC00FEE780B400AFFEE780B400AFFEE780B457
:1014EC0000AF00BFBD4680BC704780B400AF00BFEA
:1014FC00BD4680BC704780B400AF00BFBD4680BC09
:10150C00704780B500AF00F0E3F900BF80BD00006C
:10151C0080B500AF024801F03FF900BF80BD00BFAD
:10152C00BC00002080B400AF00BFBD4680BC70473B
:10153C0080B500AF00228021084800F084FC002216
:10154C004FF48071054800F07EFC00224FF40071CE
:10155C00024800F078FC00BF80BD00BF00080140CD
:10156C0080B500AF00224FF48061084800F06BFC9E
:10157C0000224FF40061054800F065FC00224FF496
:10158C008051024800F05FFC00BF80BD00080140A4
:10159C0080B500AF01228021084800F054FC0022E5
:1015AC004FF48071054800F04EFC00224FF400719E
:1015BC00024800F048FC00BF80BD00BF000801409D
:1015CC0080B500AF01224FF48061084800F03BFC6D
:1015DC0000224FF40061054800F035FC00224FF466
:1015EC008051024800F02FFC00BF80BD0008014074
:1015FC0080B500AF00228021084800F024FC0122B5
:10160C004FF48071054800F01EFC00224FF400716D
:10161C00024800F018FC00BF80BD00BF000801406C
:10162C0080B500AF00224FF48061084800F00BFC3D
:10163C0001224FF40061054800F005FC00224FF434
:10164C008051024800F0FFFB00BF80BD0008014044
:10165C0080B500AF00228021084800F0F4FB002286
:10166C004FF48071054800F0EEFB01224FF400713D
:10167C00024800F0E8FB00BF80BD00BF000801403D
:10168C0080B500AF00224FF48061084800F0DBFB0E
:10169C0000224FF40061054800F0D5FB01224FF405
:1016AC008051024800F0CFFB00BF80BD0008014014
:1016BC0080B500AF8021054800F0DDFB4FF4806160
:1016CC00024800F0D8FB00BF80BD00BF00080140FD
:1016DC0080B500AF4FF48071044800F0CCFB4FF4A0
:1016EC000061024800F0C7FB00BF80BD000801404C
:1016FC0080B500AF4FF40071044800F0BCFB4FF410
:10170C008051024800F0B7FB00BF80BD00080140CB
:10171C0080B582B000AF78602F4B1B682A2B44D069
:10172C002A2B52DC292B30D0292B4EDC012B02D05A
:10173C00282B1AD049E0FFF7FBFEFFF711FF274BD0
:10174C0019221A607B68282B02D1234B28221A609D
:10175C007B68292B02D1204B29221A607B682A2B0B
:10176C0035D11D4B2A221A6031E01C4B1B68002B13
:10177C0005DCFFF79DFF194B19221A6028E0174B67
:10178C001B68013B154A136022E0144B1B68002BAD
:10179C0005DCFFF79DFF114B19221A6018E00F4B67
:1017AC001B68013B0D4A136012E00C4B1B68002BAD
:1017BC0005DCFFF79DFF094B19221A6008E0074B67
:1017CC001B68013B054A136002E000BF00E000BF4C
:1017DC0000BF0837BD4680BD4C0000206C000020C7
:1017EC0080B500AF01220221024800F02CFB00BFA3
:1017FC0080BD00BF00080140FFF794FE0B480C4968
:10180C000C4A002302E0D458C4500433C4188C4250
:10181C00F9D3094A094C002301E013600432A242B7
:10182C00FBD301F0F9FAFFF7A3FB7047000000208F
:10183C0080000020C02E00088000002088030020BB
:10184C00FEE7000080B500AF084B1B68074A43F069
:10185C0010031360032000F023F90F2000F008F8A8
:10186C00FFF7D8FD0023184680BD00BF00200240C2
:10187C0080B582B000AF7860124B1A68124B1B789F
:10188C0019464FF47A73B3FBF1F3B2FBF3F318463A
:10189C0000F03BF90346002B01D001230EE07B68DE
:1018AC000F2B0AD8002279684FF0FF3000F003F9B3
:1018BC00064A7B681360002300E0012318460837B2
:1018CC00BD4680BD740000207C0000207800002004
:1018DC0080B400AF054B1B781A46054B1B681344AC
:1018EC00034A136000BFBD4680BC70477C000020DB
:1018FC008403002080B400AF024B1B681846BD4621
:10190C0080BC70478403002080B485B000AF786041
:10191C007B6803F00703FB600C4BDB68BB60BA68A9
:10192C004FF6FF031340BB60FB681A02BB681343FE
:10193C0043F0BF6343F40033BB60044ABB68D3601D
:10194C0000BF1437BD4680BC704700BF00ED00E0FF
:10195C0080B400AF044BDB681B0A03F00703184686
:10196C00BD4680BC704700BF00ED00E080B483B082
:10197C0000AF0346FB7197F90730002B0BDBFB79AB
:10198C0003F01F02064997F907305B09012000FAA2
:10199C0002F241F8232000BF0C37BD4680BC7047D3
:1019AC0000E100E080B483B000AF03463960FB7106
:1019BC0097F90730002B0ADB3B68DAB20C4997F930
:1019CC0007301201D2B20B4483F800230AE03B68C3
:1019DC00DAB20849FB7903F00F03043B1201D2B2CF
:1019EC000B441A7600BF0C37BD4680BC704700BF55
:1019FC0000E100E000ED00E080B489B000AFF860D9
:101A0C00B9607A60FB6803F00703FB61FB69C3F103
:101A1C000703042B28BF0423BB61FB690433062B8B
:101A2C0002D9FB69033B00E000237B614FF0FF32DE
:101A3C00BB6902FA03F3DA43BB681A407B699A402C
:101A4C004FF0FF317B6901FA03F3D9437B680B40FC
:101A5C00134318462437BD4680BC704780B582B00E
:101A6C0000AF78607B68013BB3F1807F01D3012329
:101A7C000FE00A4A7B68013B53600F214FF0FF30A7
:101A8C00FFF790FF054B00229A60044B07221A6067
:101A9C00002318460837BD4680BD00BF10E000E0AB
:101AAC0080B582B000AF78607868FFF72DFF00BF7B
:101ABC000837BD4680BD80B586B000AF0346B9601F
:101ACC007A60FB7300237B61FFF742FF78617A68D1
:101ADC00B9687869FFF790FF024697F90F30114605
:101AEC001846FFF75FFF00BF1837BD4680BD80B5B5
:101AFC0082B000AF0346FB7197F907301846FFF729
:101B0C0035FF00BF0837BD4680BD80B582B000AF41
:101B1C0078607868FFF7A2FF034618460837BD4681
:101B2C0080BD000080B48BB000AF786039600023BA
:101B3C007B6200233B6248E101227B6A02FA03F3D9
:101B4C00FB613B681B68FA691340BB61BA69FB69AE
:101B5C009A4240F037813B685B68A34A93425ED05F
:101B6C00A14A934275D8A14A934258D09F4A9342B6
:101B7C006FD89F4A934252D09D4A934269D89D4A4E
:101B8C0093424CD09B4A934263D89B4A934246D093
:101B9C00994A93425DD8122B2AD8122B59D801A2FC
:101BAC0052F823F02B1C0008051C0008171C000819
:101BBC00591C00085F1C00085F1C00085F1C000813
:101BCC005F1C00085F1C00085F1C00085F1C0008FD
:101BDC005F1C00085F1C00085F1C00085F1C0008ED
:101BEC005F1C00085F1C00080D1C0008211C00086D
:101BFC00824A934213D02CE03B68DB683B6229E0BD
:101C0C003B68DB6804333B6224E03B68DB680833E9
:101C1C003B621FE03B68DB680C333B621AE03B68BD
:101C2C009B68002B02D104233B6213E03B689B684A
:101C3C00012B05D108233B627B68FA691A6109E024
:101C4C0008233B627B68FA695A6103E000233B621C
:101C5C0000E000BFBB69FF2B01D87B6801E07B680B
:101C6C0004337B61BB69FF2B02D87B6A9B0002E0CB
:101C7C007B6A083B9B003B617B691A680F213B69BF
:101C8C0001FA03F3DB431A40396A3B6901FA03F3A7
:101C9C001A437B691A603B685B6803F08053002B26
:101CAC0000F09080564B9B69554A43F001039361B9
:101CBC00534B9B6903F00103BB60BB68514A7B6AC1
:101CCC009B08023352F82330FB607B6A03F003035A
:101CDC009B000F2202FA03F3DB43FA681340FB600C
:101CEC007B68494A93420DD07B68484A934207D09F
:101CFC007B68474A934201D1022304E0032302E0AC
:101D0C00012300E000237A6A02F003029200934060
:101D1C00FA681343FB603B497B6A9B080233FA6801
:101D2C0041F823203B685B6803F48013002B06D03A
:101D3C00384B9A683749BB6913438B6006E0354BC7
:101D4C009A68BB69DB43334913408B603B685B6823
:101D5C0003F40013002B06D02E4BDA682D49BB6917
:101D6C001343CB6006E02B4BDA68BB69DB43294994
:101D7C001340CB603B685B6803F40033002B06D048
:101D8C00244B5A682349BB6913434B6006E0214B33
:101D9C005A68BB69DB431F4913404B603B685B6867
:101DAC0003F48033002B06D01A4B1A681949BB690F
:101DBC0013430B6006E0174B1A68BB69DB431549EC
:101DCC0013400B607B6A01337B623B681A687B6A49
:101DDC0022FA03F3002B7FF4AFAE00BF00BF2C3709
:101DEC00BD4680BC704700BF0000321000003110AF
:101DFC000000221000002110000012100000111031
:101E0C00001002400000014000080140000C01409D
:101E1C00001001400004014080B485B000AF786030
:101E2C000B467B807B689A687B881340002B02D022
:101E3C000123FB7301E00023FB73FB7B1846143773
:101E4C00BD4680BC704780B483B000AF78600B4651
:101E5C007B8013467B707B78002B03D07A887B6861
:101E6C001A6103E07B881A047B681A6100BF0C3787
:101E7C00BD4680BC704780B485B000AF78600B461F
:101E8C007B807B68DB68FB607A88FB6813401A04F4
:101E9C00FB68D9437B880B401A437B681A6100BFEF
:101EAC001437BD4680BC704780B586B000AF7860F3
:101EBC007B68002B01D101236CE27B681B6803F06B
:101ECC000103002B00F08780924B5B6803F00C033E
:101EDC00042B0CD08F4B5B6803F00C03082B12D136
:101EEC008C4B5B6803F48033B3F5803F0BD1894B8B
:101EFC001B6803F40033002B6CD07B685B68002BF1
:101F0C0068D1012346E27B685B68B3F5803F06D15C
:101F1C00804B1B687F4A43F4803313602EE07B6850
:101F2C005B68002B0CD17B4B1B687A4A23F4803303
:101F3C001360784B1B68774A23F4802313601DE0F1
:101F4C007B685B68B3F5A02F0CD1724B1B68714A90
:101F5C0043F4802313606F4B1B686E4A43F4803349
:101F6C0013600BE06B4B1B686A4A23F480331360DD
:101F7C00684B1B68674A23F4802313607B685B689B
:101F8C00002B13D0FFF7B6FC386108E0FFF7B2FC6A
:101F9C0002463B69D31A642B01D90323FAE15D4B4A
:101FAC001B6803F40033002BF0D014E0FFF7A2FC05
:101FBC00386108E0FFF79EFC02463B69D31A642B9C
:101FCC0001D90323E6E1534B1B6803F40033002BC8
:101FDC00F0D100E000BF7B681B6803F00203002B0C
:101FEC0063D04C4B5B6803F00C03002B0BD0494BBC
:101FFC005B6803F00C03082B1CD1464B5B6803F4A5
:10200C008033002B16D1434B1B6803F00203002BCB
:10201C0005D07B681B69012B01D00123BAE13D4B34
:10202C001B6823F0F8027B685B69DB0039491343BA
:10203C000B603AE07B681B69002B20D0364B0122E9
:10204C001A60FFF757FC386108E0FFF753FC0246B3
:10205C003B69D31A022B01D903239BE12D4B1B683F
:10206C0003F00203002BF0D02A4B1B6823F0F8027C
:10207C007B685B69DB00274913430B6015E0264B3B
:10208C0000221A60FFF736FC386108E0FFF732FCDB
:10209C0002463B69D31A022B01D903237AE11D4B6B
:1020AC001B6803F00203002BF0D17B681B6803F064
:1020BC000803002B3AD07B689B69002B19D0174B77
:1020CC0001221A60FFF716FC386108E0FFF712FCDA
:1020DC0002463B69D31A022B01D903235AE10D4B5B
:1020EC005B6A03F00203002BF0D0012000F09AFA97
:1020FC001CE00A4B00221A60FFF7FCFB38610FE072
:10210C00FFF7F8FB02463B69D31A022B08D90323CD
:10211C0040E100BF001002400000424280044242F5
:10212C009E4B5B6A03F00203002BE9D17B681B68B2
:10213C0003F00403002B00F0A6800023FB75974BE3
:10214C00DB6903F08053002B0DD1944BDB69934A70
:10215C0043F08053D361914BDB6903F08053BB6038
:10216C00BB680123FB758E4B1B6803F48073002B3B
:10217C0018D18B4B1B688A4A43F480731360FFF7AA
:10218C00B9FB386108E0FFF7B5FB02463B69D31A8F
:10219C00642B01D90323FDE0814B1B6803F480738E
:1021AC00002BF0D07B68DB68012B06D17B4B1B6AC4
:1021BC007A4A43F0010313622DE07B68DB68002B45
:1021CC000CD1764B1B6A754A23F001031362734BD7
:1021DC001B6A724A23F0040313621CE07B68DB6801
:1021EC00052B0CD16D4B1B6A6C4A43F00403136234
:1021FC006A4B1B6A694A43F0010313620BE0674B9D
:10220C001B6A664A23F001031362644B1B6A634A20
:10221C0023F0040313627B68DB68002B15D0FFF7F7
:10222C0069FB38610AE0FFF765FB02463B69D31A8C
:10223C0041F28832934201D90323ABE0574B1B6A1E
:10224C0003F00203002BEED014E0FFF753FB3861D0
:10225C000AE0FFF74FFB02463B69D31A41F2883282
:10226C00934201D9032395E04C4B1B6A03F0020304
:10227C00002BEED1FB7D012B05D1484BDB69474A86
:10228C0023F08053D3617B68DB69002B00F08180E5
:10229C00424B5B6803F00C03082B61D07B68DB6955
:1022AC00022B46D13F4B00221A60FFF723FB38610B
:1022BC0008E0FFF71FFB02463B69D31A022B01D93A
:1022CC00032367E0354B1B6803F00073002BF0D140
:1022DC007B681B6AB3F5803F08D1304B5B6823F4F5
:1022EC0000327B689B682D4913434B602B4B5B681A
:1022FC0023F474127B68196A7B685B6A0B43274969
:10230C0013434B60274B01221A60FFF7F3FA386135
:10231C0008E0FFF7EFFA02463B69D31A022B01D90A
:10232C00032337E01D4B1B6803F00073002BF0D028
:10233C002FE01C4B00221A60FFF7DCFA386108E032
:10234C00FFF7D8FA02463B69D31A022B01D90323B3
:10235C0020E0124B1B6803F00073002BF0D118E047
:10236C007B68DB69012B01D1012313E00B4B5B680C
:10237C00FB60FB6803F480327B681B6A9A4206D1CF
:10238C00FB6803F470127B685B6A9A4201D00123EC
:10239C0000E0002318461837BD4680BD00100240EF
:1023AC00007000406000424280B584B000AF78609D
:1023BC0039607B68002B01D10123D0E06A4B1B688C
:1023CC0003F007033A689A4210D9674B1B6823F055
:1023DC00070265493B6813430B60634B1B6803F0B2
:1023EC0007033A689A4201D00123B8E07B681B6866
:1023FC0003F00203002B20D07B681B6803F004035E
:10240C00002B05D0594B5B68584A43F4E06353608A
:10241C007B681B6803F00803002B05D0534B5B68EB
:10242C00524A43F460535360504B5B6823F0F00204
:10243C007B689B684D4913434B607B681B6803F0BA
:10244C000103002B40D07B685B68012B07D1474B05
:10245C001B6803F40033002B15D101237FE07B684C
:10246C005B68022B07D1414B1B6803F00073002BF8
:10247C0009D1012373E03D4B1B6803F00203002BD1
:10248C0001D101236BE0394B5B6823F003027B68BD
:10249C005B68364913434B60FFF72CFAF8600AE08F
:1024AC00FFF728FA0246FB68D31A41F288329342AE
:1024BC0001D9032353E02D4B5B6803F00C027B68BE
:1024CC005B689B009A42EBD1274B1B6803F0070318
:1024DC003A689A4210D2244B1B6823F00702224917
:1024EC003B6813430B60204B1B6803F007033A68EF
:1024FC009A4201D0012332E07B681B6803F004038D
:10250C00002B08D0194B5B6823F4E0627B68DB6816
:10251C00164913434B607B681B6803F00803002BC0
:10252C0009D0124B5B6823F460527B681B69DB009B
:10253C000E4913434B6000F021F802460B4B5B68CD
:10254C001B0903F00F030A49CB5C22FA03F3094A77
:10255C001360094B1B681846FFF78AF900231846CD
:10256C001037BD4680BD00BF002002400010024065
:10257C00942E0008740000207800002080B487B0EE
:10258C0000AF0023FB600023BB6000237B610023B2
:10259C007B6000233B611E4B5B68FB60FB6803F0B8
:1025AC000C03042B02D0082B03D027E0194B3B6102
:1025BC0027E0FB689B0C03F00F03174AD35C7B608E
:1025CC00FB6803F48033002B10D0114B5B685B0C61
:1025DC0003F00103114AD35CBB607B680D4A02FB1C
:1025EC0003F2BB68B2FBF3F37B6104E07B680C4A3B
:1025FC0002FB03F37B617B693B6102E0054B3B61B2
:10260C0000BF3B6918461C37BD4680BC704700BFF5
:10261C000010024000127A00A42E0008B42E00080C
:10262C0000093D0080B485B000AF78600A4B1B6890
:10263C000A4AA2FB03235B0A7A6802FB03F3FB60E2
:10264C0000BFFB685A1EFA60002BF9D100BF00BF17
:10265C001437BD4680BC704774000020D34D621007
:10266C0080B582B000AF78607B68002B01D101236C
:10267C0041E07B6893F83D30DBB2002B06D17B68E0
:10268C00002283F83C207868FEF7F6FE7B68022275
:10269C0083F83D207B681A687B6804331946104622
:1026AC0000F056FA7B68012283F846207B680122F1
:1026BC0083F83E207B68012283F83F207B6801224F
:1026CC0083F840207B68012283F841207B6801223B
:1026DC0083F842207B68012283F843207B68012227
:1026EC0083F844207B68012283F845207B68012213
:1026FC0083F83D20002318460837BD4680BD0000F6
:10270C0080B485B000AF78607B6893F83D30DBB265
:10271C00012B01D0012335E07B68022283F83D2098
:10272C007B681B68DA687B681B6842F00102DA6020
:10273C007B681B68164A934209D07B681B68B3F10F
:10274C00804F04D07B681B68124A934211D17B687E
:10275C001B689B6803F00703FB60FB68062B10D01B
:10276C007B681B681A687B681B6842F001021A6060
:10277C0007E07B681B681A687B681B6842F00102E3
:10278C001A60002318461437BD4680BC704700BF42
:10279C00002C01400004004080B584B000AF78608C
:1027AC007B681B68DB68FB607B681B681B69BB6014
:1027BC00BB6803F00203002B20D0FB6803F002037C
:1027CC00002B1BD07B681B686FF002021A617B68C0
:1027DC0001221A777B681B689B6903F00303002BAB
:1027EC0003D0786800F098F905E0786800F08BF970
:1027FC00786800F09AF97B6800221A77BB6803F0BE
:10280C000403002B20D0FB6803F00403002B1BD027
:10281C007B681B686FF004021A617B6802221A77CE
:10282C007B681B689B6903F44073002B03D07868AA
:10283C0000F072F905E0786800F065F9786800F04E
:10284C0074F97B6800221A77BB6803F00803002B2D
:10285C0020D0FB6803F00803002B1BD07B681B689F
:10286C006FF008021A617B6804221A777B681B6878
:10287C00DB6903F00303002B03D0786800F04CF9FC
:10288C0005E0786800F03FF9786800F04EF97B6855
:10289C0000221A77BB6803F01003002B20D0FB68D2
:1028AC0003F01003002B1BD07B681B686FF0100229
:1028BC001A617B6808221A777B681B68DB6903F452
:1028CC004073002B03D0786800F026F905E0786897
:1028DC0000F019F9786800F028F97B6800221A7763
:1028EC00BB6803F00103002B0CD0FB6803F0010361
:1028FC00002B07D07B681B686FF001021A617868A7
:10290C00FEF75AFCBB6803F08003002B0CD0FB686D
:10291C0003F08003002B07D07B681B686FF08002EC
:10292C001A61786800F06FFABB6803F04003002B63
:10293C000CD0FB6803F04003002B07D07B681B68AE
:10294C006FF040021A61786800F0F8F8BB6803F089
:10295C002003002B0CD0FB6803F02003002B07D0C6
:10296C007B681B686FF020021A61786800F042FAED
:10297C0000BF1037BD4680BD80B584B000AF786015
:10298C0039600023FB737B6893F83C30012B01D139
:10299C000223B4E07B68012283F83C207B6802228E
:1029AC0083F83D207B681B689B68BB60BB6823F089
:1029BC007703BB60BB6823F47F43BB607B681B68F9
:1029CC00BA689A603B681B68B3F5005F3ED0B3F5FC
:1029DC00005F00F28780B3F5805F00F08680B3F56E
:1029EC00805F7FD8702B1AD0702B7BD8602B50D087
:1029FC00602B77D8502B3CD0502B73D8402B58D011
:102A0C00402B6FD8302B64D0302B6BD8202B60D060
:102A1C00202B67D8002B5CD0102B5AD062E07B683F
:102A2C0018683B6899683B685A683B68DB6800F03B
:102A3C006AF97B681B689B68BB60BB6843F07703D3
:102A4C00BB607B681B68BA689A604FE07B6818684B
:102A5C003B6899683B685A683B68DB6800F053F93F
:102A6C007B681B689A687B681B6842F480429A609A
:102A7C003CE07B6818683B6859683B68DB681A4621
:102A8C0000F0CAF87B681B685021184600F021F949
:102A9C002CE07B6818683B6859683B68DB681A4611
:102AAC0000F0E8F87B681B686021184600F011F90B
:102ABC001CE07B6818683B6859683B68DB681A4601
:102ACC0000F0AAF87B681B684021184600F001F959
:102ADC000CE07B681A683B681B681946104600F0CE
:102AEC00F8F803E00123FB7300E000BF7B680122D0
:102AFC0083F83D207B68002283F83C20FB7B184642
:102B0C001037BD4680BD80B483B000AF786000BF85
:102B1C000C37BD4680BC704780B483B000AF786082
:102B2C0000BF0C37BD4680BC704780B483B000AF8B
:102B3C00786000BF0C37BD4680BC704780B483B052
:102B4C0000AF786000BF0C37BD4680BC70470000FA
:102B5C0080B485B000AF786039607B681B68FB601F
:102B6C007B682B4A934207D07B68B3F1804F03D02C
:102B7C007B68284A934208D1FB6823F07003FB6002
:102B8C003B685B68FA681343FB607B68204A93429E
:102B9C0007D07B68B3F1804F03D07B681D4A93420A
:102BAC0008D1FB6823F44073FB603B68DB68FA6870
:102BBC001343FB60FB6823F080023B685B691343A3
:102BCC00FB607B68FA681A603B689A687B68DA621B
:102BDC003B681A687B689A627B680D4A934203D102
:102BEC003B681A697B681A637B6801225A617B68AF
:102BFC001B6903F00103002B05D07B681B6923F0D4
:102C0C0001027B681A6100BF1437BD4680BC704757
:102C1C00002C01400004004080B487B000AFF86085
:102C2C00B9607A60FB681B6A7B61FB681B6A23F0E6
:102C3C000102FB681A62FB689B693B613B6923F0EC
:102C4C00F0033B617B681B013A6913433B617B6971
:102C5C0023F00A037B617A69BB6813437B61FB68D1
:102C6C003A699A61FB687A691A6200BF1C37BD46E3
:102C7C0080BC704780B487B000AFF860B9607A60F0
:102C8C00FB681B6A7B61FB681B6A23F01002FB6804
:102C9C001A62FB689B693B613B6923F470433B619F
:102CAC007B681B033A6913433B617B6923F0A003E8
:102CBC007B61BB681B017A6913437B61FB683A69D2
:102CCC009A61FB687A691A6200BF1C37BD4680BCEA
:102CDC00704780B485B000AF786039607B689B68C2
:102CEC00FB60FB6823F07003FB603A68FB681343DE
:102CFC0043F00703FB607B68FA689A6000BF1437E7
:102D0C00BD4680BC704780B487B000AFF860B96036
:102D1C007A603B60FB689B687B617B6923F47F4333
:102D2C007B613B681A027B681A43BB6813437A6960
:102D3C0013437B61FB687A699A6000BF1C37BD4600
:102D4C0080BC704780B485B000AF786039607B6818
:102D5C0093F83C30012B01D1022341E07B68012226
:102D6C0083F83C207B68022283F83D207B681B683B
:102D7C005B68FB607B681B689B68BB60FB6823F02F
:102D8C007003FB603B681B68FA681343FB607B684D
:102D9C001B68FA685A607B681B68144A934209D016
:102DAC007B681B68B3F1804F04D07B681B68104AAA
:102DBC0093420CD1BB6823F08003BB603B685B681B
:102DCC00BA681343BB607B681B68BA689A607B68FF
:102DDC00012283F83D207B68002283F83C200023ED
:102DEC0018461437BD4680BC704700BF002C01400C
:102DFC000004004080B483B000AF786000BF0C3793
:102E0C00BD4680BC704780B483B000AF786000BF13
:102E1C000C37BD4680BC704770B500260C4D0D4C70
:102E2C00641BA410A64209D100F022F800260A4D1A
:102E3C000A4C641BA410A64205D170BD55F8043B86
:102E4C0098470136EEE755F8043B98470136F2E710
:102E5C00B82E0008B82E0008B82E0008BC2E0008AA
:102E6C0003460244934200D1704703F8011BF9E773
:102E7C00F8B500BFF8BC08BC9E467047F8B500BF5B
:082E8C00F8BC08BC9E4670472B
:102E94000000000000000000010203040607080906
:102EA40002030405060708090A0B0C0D0E0F101087
:042EB4000102000017
:042EB80031010008DC
:042EBC000D010008FC
:102EC0000100000000000000000000000100000000
:102ED00000000000000000000100000000000000F1
:102EE00000000000010000000000000000000000E1
:102EF000C800000000000000000000000100000009
:102F000001000000010000000100000001000000BD
:102F100005000000030000000200000005000000A2
:102F200003000000640000006400000019000000BD
:102F30001900000000127A001000000001000000DB
:0400000508001805D2
:00000001FF
